{
  "_format": "hh3-artifact-1",
  "contractName": "VPNPayment",
  "sourceName": "contracts/VPNPayment.sol",
  "abi": [
    {
      "inputs": [
        {
          "internalType": "address",
          "name": "_x402Address",
          "type": "address"
        }
      ],
      "stateMutability": "nonpayable",
      "type": "constructor"
    },
    {
      "inputs": [
        {
          "internalType": "address",
          "name": "owner",
          "type": "address"
        }
      ],
      "name": "OwnableInvalidOwner",
      "type": "error"
    },
    {
      "inputs": [
        {
          "internalType": "address",
          "name": "account",
          "type": "address"
        }
      ],
      "name": "OwnableUnauthorizedAccount",
      "type": "error"
    },
    {
      "anonymous": false,
      "inputs": [
        {
          "indexed": true,
          "internalType": "address",
          "name": "user",
          "type": "address"
        },
        {
          "indexed": false,
          "internalType": "uint256",
          "name": "amount",
          "type": "uint256"
        }
      ],
      "name": "Deposited",
      "type": "event"
    },
    {
      "anonymous": false,
      "inputs": [
        {
          "indexed": true,
          "internalType": "address",
          "name": "previousOwner",
          "type": "address"
        },
        {
          "indexed": true,
          "internalType": "address",
          "name": "newOwner",
          "type": "address"
        }
      ],
      "name": "OwnershipTransferred",
      "type": "event"
    },
    {
      "anonymous": false,
      "inputs": [
        {
          "indexed": true,
          "internalType": "address",
          "name": "user",
          "type": "address"
        },
        {
          "indexed": true,
          "internalType": "address",
          "name": "node",
          "type": "address"
        },
        {
          "indexed": false,
          "internalType": "uint256",
          "name": "cost",
          "type": "uint256"
        },
        {
          "indexed": false,
          "internalType": "uint256",
          "name": "durationSec",
          "type": "uint256"
        }
      ],
      "name": "Settled",
      "type": "event"
    },
    {
      "inputs": [
        {
          "internalType": "address",
          "name": "node",
          "type": "address"
        }
      ],
      "name": "addNode",
      "outputs": [],
      "stateMutability": "nonpayable",
      "type": "function"
    },
    {
      "inputs": [
        {
          "internalType": "address",
          "name": "",
          "type": "address"
        }
      ],
      "name": "authorizedNodes",
      "outputs": [
        {
          "internalType": "bool",
          "name": "",
          "type": "bool"
        }
      ],
      "stateMutability": "view",
      "type": "function"
    },
    {
      "inputs": [
        {
          "internalType": "address",
          "name": "",
          "type": "address"
        }
      ],
      "name": "balances",
      "outputs": [
        {
          "internalType": "uint256",
          "name": "",
          "type": "uint256"
        }
      ],
      "stateMutability": "view",
      "type": "function"
    },
    {
      "inputs": [
        {
          "internalType": "uint256",
          "name": "amount",
          "type": "uint256"
        }
      ],
      "name": "deposit",
      "outputs": [],
      "stateMutability": "nonpayable",
      "type": "function"
    },
    {
      "inputs": [],
      "name": "owner",
      "outputs": [
        {
          "internalType": "address",
          "name": "",
          "type": "address"
        }
      ],
      "stateMutability": "view",
      "type": "function"
    },
    {
      "inputs": [],
      "name": "renounceOwnership",
      "outputs": [],
      "stateMutability": "nonpayable",
      "type": "function"
    },
    {
      "inputs": [
        {
          "internalType": "address",
          "name": "user",
          "type": "address"
        },
        {
          "internalType": "uint256",
          "name": "cost",
          "type": "uint256"
        },
        {
          "internalType": "uint256",
          "name": "totalSeconds",
          "type": "uint256"
        }
      ],
      "name": "settleSession",
      "outputs": [],
      "stateMutability": "nonpayable",
      "type": "function"
    },
    {
      "inputs": [
        {
          "internalType": "address",
          "name": "newOwner",
          "type": "address"
        }
      ],
      "name": "transferOwnership",
      "outputs": [],
      "stateMutability": "nonpayable",
      "type": "function"
    },
    {
      "inputs": [],
      "name": "withdraw",
      "outputs": [],
      "stateMutability": "nonpayable",
      "type": "function"
    },
    {
      "inputs": [],
      "name": "x402",
      "outputs": [
        {
          "internalType": "contract IERC20",
          "name": "",
          "type": "address"
        }
      ],
      "stateMutability": "view",
      "type": "function"
    }
  ],
  "bytecode": "0x608060405234801561000f575f5ffd5b506040516108d43803806108d483398101604081905261002e916100d1565b338061005357604051631e4fbdf760e01b81525f600482015260240160405180910390fd5b61005c81610082565b50600180546001600160a01b0319166001600160a01b03929092169190911790556100fe565b5f80546001600160a01b038381166001600160a01b0319831681178455604051919092169283917f8be0079c531659141344cd1fd0a4f28419497f9722a3daafe3b4186f6b6457e09190a35050565b5f602082840312156100e1575f5ffd5b81516001600160a01b03811681146100f7575f5ffd5b9392505050565b6107c98061010b5f395ff3fe608060405234801561000f575f5ffd5b506004361061009b575f3560e01c80638da5cb5b116100635780638da5cb5b146101405780639d95f1cc14610150578063b6b55f2514610163578063bdb4f7f914610176578063f2fde38b14610189575f5ffd5b806327e235e31461009f57806337a5d903146100d15780633ccfd60b146100fc578063715018a6146101065780637e53a7401461010e575b5f5ffd5b6100be6100ad3660046106cd565b60026020525f908152604090205481565b6040519081526020015b60405180910390f35b6001546100e4906001600160a01b031681565b6040516001600160a01b0390911681526020016100c8565b61010461019c565b005b6101046102bb565b61013061011c3660046106cd565b60036020525f908152604090205460ff1681565b60405190151581526020016100c8565b5f546001600160a01b03166100e4565b61010461015e3660046106cd565b6102ce565b6101046101713660046106ed565b6102f9565b610104610184366004610704565b61040a565b6101046101973660046106cd565b6105fd565b335f90815260026020526040902054806101e85760405162461bcd60e51b81526020600482015260086024820152674e6f2066756e647360c01b60448201526064015b60405180910390fd5b335f8181526002602052604080822091909155600154905163a9059cbb60e01b81526004810192909252602482018390526001600160a01b03169063a9059cbb906044016020604051808303815f875af1158015610248573d5f5f3e3d5ffd5b505050506040513d601f19601f8201168201806040525081019061026c9190610734565b6102b85760405162461bcd60e51b815260206004820152601860248201527f5769746864726177207472616e73666572206661696c6564000000000000000060448201526064016101df565b50565b6102c3610637565b6102cc5f610663565b565b6102d6610637565b6001600160a01b03165f908152600360205260409020805460ff19166001179055565b6001546040516323b872dd60e01b8152336004820152306024820152604481018390526001600160a01b03909116906323b872dd906064016020604051808303815f875af115801561034d573d5f5f3e3d5ffd5b505050506040513d601f19601f820116820180604052508101906103719190610734565b6103af5760405162461bcd60e51b815260206004820152600f60248201526e151c985b9cd9995c8819985a5b1959608a1b60448201526064016101df565b335f90815260026020526040812080548392906103cd908490610767565b909155505060405181815233907f2da466a7b24304f47e87fa2e1e5a81b9831ce54fec19055ce277ca2f39ba42c49060200160405180910390a250565b335f9081526003602052604090205460ff166104615760405162461bcd60e51b81526020600482015260166024820152754e6f7420616e20617574686f72697a6564206e6f646560501b60448201526064016101df565b6001600160a01b0383165f908152600260205260409020548211156104c85760405162461bcd60e51b815260206004820152601960248201527f5573657220696e73756666696369656e742062616c616e63650000000000000060448201526064016101df565b6001600160a01b0383165f90815260026020526040812080548492906104ef908490610780565b909155505060015460405163a9059cbb60e01b8152336004820152602481018490526001600160a01b039091169063a9059cbb906044016020604051808303815f875af1158015610542573d5f5f3e3d5ffd5b505050506040513d601f19601f820116820180604052508101906105669190610734565b6105b25760405162461bcd60e51b815260206004820152601760248201527f5061796d656e74207472616e73666572206661696c656400000000000000000060448201526064016101df565b604080518381526020810183905233916001600160a01b038616917f16c41a749cf94bd479b1fc5d82a6eb4557d71262f15dc382d2cf6f1eb3d68e8e910160405180910390a3505050565b610605610637565b6001600160a01b03811661062e57604051631e4fbdf760e01b81525f60048201526024016101df565b6102b881610663565b5f546001600160a01b031633146102cc5760405163118cdaa760e01b81523360048201526024016101df565b5f80546001600160a01b038381166001600160a01b0319831681178455604051919092169283917f8be0079c531659141344cd1fd0a4f28419497f9722a3daafe3b4186f6b6457e09190a35050565b80356001600160a01b03811681146106c8575f5ffd5b919050565b5f602082840312156106dd575f5ffd5b6106e6826106b2565b9392505050565b5f602082840312156106fd575f5ffd5b5035919050565b5f5f5f60608486031215610716575f5ffd5b61071f846106b2565b95602085013595506040909401359392505050565b5f60208284031215610744575f5ffd5b815180151581146106e6575f5ffd5b634e487b7160e01b5f52601160045260245ffd5b8082018082111561077a5761077a610753565b92915050565b8181038181111561077a5761077a61075356fea26469706673582212201df1754e5875249190f2edb04f7dc7bb36d814698e0c0e3fa9a89baa52af851864736f6c634300081c0033",
  "linkReferences": {},
  "deployedLinkReferences": {},
  "immutableReferences": {},
  "inputSourceName": "project/contracts/VPNPayment.sol",
  "buildInfoId": "solc-0_8_28-256a28647f0513432d24cd6ed4a316c42bbb38a6"
}